:020000042001D9
:10780000554D4F440001010002000000000000003F
:107810004F780120B97801204B780120477801206A
:10782000417901200000000000000000000000007D
:107830000000000000000000000000000000000048
:047840007D7901202D
:1078440070477047704770477047104B104A2DE9D6
:10785400F041884607460021934202D003F8011FF5
:10786400FAE70C4B0C4CE41AA41000251E46A54262
:1078740005D056F8253003B198470135F7E741465E
:10788400384600F00BF8BDE8F08100BF8F79012085
:107894009B7901204078012044780120044B002288
:1078A4001A604FF000425A6000229A60704700BF8D
:1078B40090790120F0B51F4A059B566897689FEDA3
:1078C4001E5ADB0001EB030E35461446F7EE006A40
:1078D400F1EE005A714507EE905A00F108003D445C
:1078E40022D0F8EEE77A94ED006A27EE857A17EE57
:1078F400102A22F0004207EE902A77EEE67A67EE2D
:10790400877AB0EE667A67EEA57AA6EE677AF0EE2D
:10791400477A10ED027A67EE877A17EE902A41F8DB
:10792400082B41ED017AD5E7DA0807FB02636360AF
:10793400F0BD00BF907901200000003007EE901ADE
:10794400FAEEE07A10B101280ED07047B2EE047A54
:1079540067EE877A9FED067A064B67EE877AFEEE2E
:10796400C07AC3ED027A7047024BC3ED007A7047C8
:107974003EC3AE3790790120034B4FF000425A606A
:0C79840000229A60704700BF907901203B
:040000052001784F0F
:00000001FF
